:020000040000FA
:060000000A128A110C280F
:10000800FE00030EF1000A08F2000A128A116129A3
:100018000A128A110F280A128A11EA210A128A1171
:10002800FA00B301F90183010A128A111B280A1286
:100038008A11EB200A128A118312031333089900DC
:100048000A128A11E1210A128A11EC30F3000030F9
:10005800F4000A128A11CE210A128A11D030F30054
:100068000030F4000A128A11CE210A128A110A12EB
:100078008A11D8210A128A11023083120313B2009E
:100088000430B100B930B000B00B4828B10B482893
:10009800B20B48284F280A128A11E1210A128A1144
:1000A800ED30F3000030F4000A128A11CE210A1252
:1000B8008A110030F300F4000A128A1194210A12FE
:1000C8008A11730883120313B0003008B3000A12B0
:1000D8008A11D8210A128A11023083120313B2003E
:1000E8000430B100B930B000B00B7828B10B7828D3
:1000F800B20B78287F2820280A128A110C28003091
:10010800F7000030F6000030F5000030F4008312EC
:100118000313230822042104200403199428952892
:10012800E228F801F80AA5280130F3000310A00D11
:10013800A10DA20DA30DF30B9A280130F30073084B
:10014800F807A31FA828A92898280130F30003104E
:10015800F40DF50DF60DF70DF30BAB282308270268
:10016800031DC02822082602031DC02821082502D5
:10017800031DC02820082402031CC328C428D32830
:100188002008A4022108031C210FA5022208031C31
:10019800220FA6022308031C230FA70274140130A0
:1001A8000310A30CA20CA10CA00CFF3E031DD42825
:1001B8000130F802031DE128E228A9287708A300E6
:1001C8007608A2007508A1007408A000080083162C
:1001D80003178801890183160313850186018701A6
:1001E8008711871788018901831203138901003059
:1001F800AB000030AA000030A9000930A8000A129C
:100208008A1127210A128A118316031318158316D7
:1002180003178711193083160313990098161812BB
:1002280083120313981783160313181383120313E7
:1002380018161813831603138C160C128312031343
:100248008C128B170800283083120313940083162E
:1002580003139101831203132808AC002908AD0089
:100268002A08AE002B08AF0002300310AC0DAD0D0C
:10027800AE0DAF0DFF3E031D39292F08A3002E0830
:10028800A2002D08A1002C08A0000030A7003D30D6
:10029800A6000930A5000030A4000A128A118320A4
:1002A8000A128A11831203132008FF3E83160313D0
:1002B80093009401871507160800831203138C1EF8
:1002C800662967296C298C121A08F0007008F90051
:1002D8000A307906031D71297229742989018D292B
:1002E8000B307906031D79297A297D290130890087
:1002F8008D290C307906031D8229832984297229C6
:100308000D307906031D89298A298D290230890033
:100318008D2972088A00710E8300FE0E7E0E090078
:100328000A128A11C1210A128A1183160313911520
:100338000A128A11C1210A128A118312031313089F
:10034800F500F6017508F7007608F8000A128A1118
:10035800C1210A128A11730874040319B429B8292F
:10036800831603139116BB298316031391121116D2
:100378007808F4007708F3000800831603131419AB
:10038800C629C729C12911081F39031DCC29CD2920
:10039800C12908000A128A11C1210A128A11730898
:1003A80083120313930008000A128A11C1210A124A
:1003B8008A1183160313111508000A128A11C12124
:0E03C8000A128A118316031311140800EC3474
:04400E00D420FF3F7C
:00000001FF
